{
  "_format": "hh-sol-artifact-1",
  "contractName": "NFTStaking",
  "sourceName": "contracts/NFTStaking.sol",
  "abi": [
    {
      "inputs": [],
      "stateMutability": "nonpayable",
      "type": "constructor"
    },
    {
      "anonymous": false,
      "inputs": [
        {
          "indexed": false,
          "internalType": "uint256",
          "name": "poolId",
          "type": "uint256"
        },
        {
          "indexed": false,
          "internalType": "address",
          "name": "creator",
          "type": "address"
        }
      ],
      "name": "PoolInitialized",
      "type": "event"
    },
    {
      "inputs": [],
      "name": "admin",
      "outputs": [
        {
          "internalType": "address",
          "name": "",
          "type": "address"
        }
      ],
      "stateMutability": "view",
      "type": "function"
    },
    {
      "inputs": [
        {
          "internalType": "uint256",
          "name": "poolId",
          "type": "uint256"
        },
        {
          "internalType": "uint256",
          "name": "nftId",
          "type": "uint256"
        }
      ],
      "name": "calculateReward",
      "outputs": [
        {
          "internalType": "uint256",
          "name": "reward",
          "type": "uint256"
        }
      ],
      "stateMutability": "view",
      "type": "function"
    },
    {
      "inputs": [
        {
          "internalType": "uint256",
          "name": "poolId",
          "type": "uint256"
        }
      ],
      "name": "claimRewards",
      "outputs": [],
      "stateMutability": "nonpayable",
      "type": "function"
    },
    {
      "inputs": [
        {
          "internalType": "address",
          "name": "",
          "type": "address"
        }
      ],
      "name": "createdPools",
      "outputs": [
        {
          "internalType": "uint256",
          "name": "",
          "type": "uint256"
        }
      ],
      "stateMutability": "view",
      "type": "function"
    },
    {
      "inputs": [
        {
          "internalType": "uint256",
          "name": "offset",
          "type": "uint256"
        },
        {
          "internalType": "uint256",
          "name": "limit",
          "type": "uint256"
        }
      ],
      "name": "getAllPools",
      "outputs": [
        {
          "components": [
            {
              "internalType": "uint256",
              "name": "poolId",
              "type": "uint256"
            },
            {
              "internalType": "address",
              "name": "collectionAddress",
              "type": "address"
            },
            {
              "internalType": "address",
              "name": "rewardTokenAddress",
              "type": "address"
            },
            {
              "internalType": "address",
              "name": "creatorAddress",
              "type": "address"
            },
            {
              "internalType": "uint256",
              "name": "minStakeSeconds",
              "type": "uint256"
            },
            {
              "internalType": "uint256",
              "name": "maxStakeSeconds",
              "type": "uint256"
            },
            {
              "internalType": "uint256",
              "name": "cooldownSeconds",
              "type": "uint256"
            },
            {
              "internalType": "uint256",
              "name": "timeUnitSeconds",
              "type": "uint256"
            },
            {
              "internalType": "uint256",
              "name": "rewardsPerTimeUnit",
              "type": "uint256"
            },
            {
              "internalType": "uint256",
              "name": "startTimestamp",
              "type": "uint256"
            },
            {
              "internalType": "uint256",
              "name": "endTimestamp",
              "type": "uint256"
            },
            {
              "internalType": "string",
              "name": "baseURI",
              "type": "string"
            }
          ],
          "internalType": "struct NFTStaking.StakingInfo[]",
          "name": "",
          "type": "tuple[]"
        }
      ],
      "stateMutability": "view",
      "type": "function"
    },
    {
      "inputs": [
        {
          "internalType": "uint256",
          "name": "poolId",
          "type": "uint256"
        },
        {
          "internalType": "uint256",
          "name": "nftId",
          "type": "uint256"
        }
      ],
      "name": "getNFTInfo",
      "outputs": [
        {
          "components": [
            {
              "internalType": "address",
              "name": "tokenOwner",
              "type": "address"
            },
            {
              "internalType": "uint256",
              "name": "stakedStartTime",
              "type": "uint256"
            },
            {
              "internalType": "uint256",
              "name": "lastUpdate",
              "type": "uint256"
            },
            {
              "internalType": "bool",
              "name": "isStaked",
              "type": "bool"
            }
          ],
          "internalType": "struct NFTStaking.NFTInfo",
          "name": "",
          "type": "tuple"
        }
      ],
      "stateMutability": "view",
      "type": "function"
    },
    {
      "inputs": [
        {
          "internalType": "uint256",
          "name": "poolId",
          "type": "uint256"
        },
        {
          "internalType": "address",
          "name": "staker",
          "type": "address"
        }
      ],
      "name": "getNFTStakedLength",
      "outputs": [
        {
          "internalType": "uint256",
          "name": "",
          "type": "uint256"
        }
      ],
      "stateMutability": "view",
      "type": "function"
    },
    {
      "inputs": [
        {
          "internalType": "uint256",
          "name": "index",
          "type": "uint256"
        }
      ],
      "name": "getPoolInfo",
      "outputs": [
        {
          "components": [
            {
              "internalType": "uint256",
              "name": "poolId",
              "type": "uint256"
            },
            {
              "internalType": "address",
              "name": "collectionAddress",
              "type": "address"
            },
            {
              "internalType": "address",
              "name": "rewardTokenAddress",
              "type": "address"
            },
            {
              "internalType": "address",
              "name": "creatorAddress",
              "type": "address"
            },
            {
              "internalType": "uint256",
              "name": "minStakeSeconds",
              "type": "uint256"
            },
            {
              "internalType": "uint256",
              "name": "maxStakeSeconds",
              "type": "uint256"
            },
            {
              "internalType": "uint256",
              "name": "cooldownSeconds",
              "type": "uint256"
            },
            {
              "internalType": "uint256",
              "name": "timeUnitSeconds",
              "type": "uint256"
            },
            {
              "internalType": "uint256",
              "name": "rewardsPerTimeUnit",
              "type": "uint256"
            },
            {
              "internalType": "uint256",
              "name": "startTimestamp",
              "type": "uint256"
            },
            {
              "internalType": "uint256",
              "name": "endTimestamp",
              "type": "uint256"
            },
            {
              "internalType": "string",
              "name": "baseURI",
              "type": "string"
            }
          ],
          "internalType": "struct NFTStaking.StakingInfo",
          "name": "",
          "type": "tuple"
        }
      ],
      "stateMutability": "view",
      "type": "function"
    },
    {
      "inputs": [
        {
          "internalType": "address",
          "name": "creator",
          "type": "address"
        }
      ],
      "name": "getPoolsByCreator",
      "outputs": [
        {
          "components": [
            {
              "internalType": "uint256",
              "name": "poolId",
              "type": "uint256"
            },
            {
              "internalType": "address",
              "name": "collectionAddress",
              "type": "address"
            }
          ],
          "internalType": "struct NFTStaking.CreatorPool[]",
          "name": "",
          "type": "tuple[]"
        }
      ],
      "stateMutability": "view",
      "type": "function"
    },
    {
      "inputs": [
        {
          "internalType": "uint256",
          "name": "poolId",
          "type": "uint256"
        },
        {
          "internalType": "address",
          "name": "staker",
          "type": "address"
        },
        {
          "internalType": "uint256",
          "name": "start",
          "type": "uint256"
        },
        {
          "internalType": "uint256",
          "name": "end",
          "type": "uint256"
        }
      ],
      "name": "getStakeInfo",
      "outputs": [
        {
          "components": [
            {
              "internalType": "uint256",
              "name": "NFTId",
              "type": "uint256"
            },
            {
              "internalType": "uint256",
              "name": "rewards",
              "type": "uint256"
            },
            {
              "internalType": "string",
              "name": "uri",
              "type": "string"
            }
          ],
          "internalType": "struct NFTStaking.Rewards[]",
          "name": "",
          "type": "tuple[]"
        }
      ],
      "stateMutability": "view",
      "type": "function"
    },
    {
      "inputs": [
        {
          "internalType": "uint256",
          "name": "poolId",
          "type": "uint256"
        },
        {
          "internalType": "address",
          "name": "staker",
          "type": "address"
        }
      ],
      "name": "getStakedArray",
      "outputs": [
        {
          "internalType": "uint256[]",
          "name": "array",
          "type": "uint256[]"
        }
      ],
      "stateMutability": "view",
      "type": "function"
    },
    {
      "inputs": [
        {
          "internalType": "address",
          "name": "collectionAddress",
          "type": "address"
        },
        {
          "internalType": "address",
          "name": "rewardTokenAddress",
          "type": "address"
        },
        {
          "internalType": "uint256",
          "name": "minStakeSeconds",
          "type": "uint256"
        },
        {
          "internalType": "uint256",
          "name": "maxStakeSeconds",
          "type": "uint256"
        },
        {
          "internalType": "uint256",
          "name": "cooldownSeconds",
          "type": "uint256"
        },
        {
          "internalType": "uint256",
          "name": "timeUnitSeconds",
          "type": "uint256"
        },
        {
          "internalType": "uint256",
          "name": "rewardsPerTimeUnit",
          "type": "uint256"
        },
        {
          "internalType": "uint256",
          "name": "startTimestamp",
          "type": "uint256"
        },
        {
          "internalType": "uint256",
          "name": "endTimestamp",
          "type": "uint256"
        }
      ],
      "name": "initPool",
      "outputs": [],
      "stateMutability": "nonpayable",
      "type": "function"
    },
    {
      "inputs": [
        {
          "internalType": "uint256",
          "name": "poolId",
          "type": "uint256"
        },
        {
          "internalType": "address",
          "name": "collectionAddress",
          "type": "address"
        },
        {
          "internalType": "address",
          "name": "rewardTokenAddress",
          "type": "address"
        },
        {
          "internalType": "address",
          "name": "creatorAddress",
          "type": "address"
        },
        {
          "internalType": "uint256",
          "name": "minStakeSeconds",
          "type": "uint256"
        },
        {
          "internalType": "uint256",
          "name": "maxStakeSeconds",
          "type": "uint256"
        },
        {
          "internalType": "uint256",
          "name": "cooldownSeconds",
          "type": "uint256"
        },
        {
          "internalType": "uint256",
          "name": "timeUnitSeconds",
          "type": "uint256"
        },
        {
          "internalType": "uint256",
          "name": "rewardsPerTimeUnit",
          "type": "uint256"
        },
        {
          "internalType": "uint256",
          "name": "startTimestamp",
          "type": "uint256"
        },
        {
          "internalType": "uint256",
          "name": "endTimestamp",
          "type": "uint256"
        },
        {
          "internalType": "string",
          "name": "baseURI",
          "type": "string"
        }
      ],
      "name": "insertPool",
      "outputs": [],
      "stateMutability": "nonpayable",
      "type": "function"
    },
    {
      "inputs": [
        {
          "internalType": "address",
          "name": "",
          "type": "address"
        }
      ],
      "name": "isPoolExists",
      "outputs": [
        {
          "internalType": "bool",
          "name": "",
          "type": "bool"
        }
      ],
      "stateMutability": "view",
      "type": "function"
    },
    {
      "inputs": [
        {
          "internalType": "address",
          "name": "",
          "type": "address"
        },
        {
          "internalType": "address",
          "name": "",
          "type": "address"
        },
        {
          "internalType": "uint256",
          "name": "",
          "type": "uint256"
        },
        {
          "internalType": "bytes",
          "name": "",
          "type": "bytes"
        }
      ],
      "name": "onERC721Received",
      "outputs": [
        {
          "internalType": "bytes4",
          "name": "",
          "type": "bytes4"
        }
      ],
      "stateMutability": "nonpayable",
      "type": "function"
    },
    {
      "inputs": [],
      "name": "poolsCounter",
      "outputs": [
        {
          "internalType": "uint256",
          "name": "",
          "type": "uint256"
        }
      ],
      "stateMutability": "view",
      "type": "function"
    },
    {
      "inputs": [
        {
          "internalType": "uint256",
          "name": "poolId",
          "type": "uint256"
        }
      ],
      "name": "removePool",
      "outputs": [],
      "stateMutability": "nonpayable",
      "type": "function"
    },
    {
      "inputs": [
        {
          "internalType": "uint256",
          "name": "poolId",
          "type": "uint256"
        },
        {
          "internalType": "uint256[]",
          "name": "nftIds",
          "type": "uint256[]"
        }
      ],
      "name": "stake",
      "outputs": [],
      "stateMutability": "nonpayable",
      "type": "function"
    },
    {
      "inputs": [],
      "name": "timestamp",
      "outputs": [
        {
          "internalType": "uint256",
          "name": "",
          "type": "uint256"
        }
      ],
      "stateMutability": "view",
      "type": "function"
    },
    {
      "inputs": [
        {
          "internalType": "uint256",
          "name": "poolId",
          "type": "uint256"
        },
        {
          "internalType": "uint256[]",
          "name": "nftIds",
          "type": "uint256[]"
        }
      ],
      "name": "unstake",
      "outputs": [],
      "stateMutability": "nonpayable",
      "type": "function"
    }
  ],
  "bytecode": "0x60a060405234801561001057600080fd5b50336080526080516131636100376000396000818161036d01526103f901526131636000f3fe608060405234801561001057600080fd5b506004361061012c5760003560e01c806341c1bdc1116100ad578063a38dcbd011610071578063a38dcbd01461030f578063a7753f0914610322578063b80777ea14610342578063c84728ef14610348578063f851a4401461036857600080fd5b806341c1bdc11461024f5780635d0eb31a14610262578063639a29051461026b5780637edb992c1461029e57806396cd299f146102ef57600080fd5b806316f60557116100f457806316f60557146101c95780632133b8c2146101dc57806323a749e3146101fc5780632f380b351461021c578063395de2421461023c57600080fd5b80630186b04314610131578063034ed601146101575780630962ef791461016c57806313ed08461461017f578063150b7a0214610192575b600080fd5b61014461013f3660046127f2565b6103a7565b6040519081526020015b60405180910390f35b61016a6101653660046128f2565b6103ee565b005b61016a61017a3660046129b4565b610699565b61014461018d3660046129cd565b610a16565b6101b06101a03660046129ef565b630a85bd0160e11b949350505050565b6040516001600160e01b0319909116815260200161014e565b61016a6101d7366004612a6b565b610c76565b6101ef6101ea3660046127f2565b611043565b60405161014e9190612aea565b61014461020a366004612b2e565b60026020526000908152604090205481565b61022f61022a3660046129b4565b6110d1565b60405161014e9190612c57565b61016a61024a366004612a6b565b61122b565b61016a61025d366004612c6a565b61163d565b61014460005481565b61028e610279366004612b2e565b60016020526000908152604090205460ff1681565b604051901515815260200161014e565b6102b16102ac3660046129cd565b611baa565b60405161014e919081516001600160a01b03168152602080830151908201526040808301519082015260609182015115159181019190915260800190565b6103026102fd366004612cdb565b611c43565b60405161014e9190612d16565b61016a61031d3660046129b4565b611f84565b6103356103303660046129cd565b61211c565b60405161014e9190612d95565b42610144565b61035b610356366004612b2e565b612425565b60405161014e9190612df7565b61038f7f000000000000000000000000000000000000000000000000000000000000000081565b6040516001600160a01b03909116815260200161014e565b6000600383815481106103bc576103bc612e4f565b600091825260208083206001600160a01b0386168452600d600e90930201919091019052604090205490505b92915050565b336001600160a01b037f000000000000000000000000000000000000000000000000000000000000000016146104615760405162461bcd60e51b815260206004820152601360248201527229b2b73232b91034b9903737ba1030b236b4b760691b60448201526064015b60405180910390fd5b60006001600160a01b031660038d8154811061047f5761047f612e4f565b600091825260209091206001600e9092020101546001600160a01b0316146104df5760405162461bcd60e51b8152602060048201526013602482015272706f6f6c4964206973206e6f7420656d70747960681b6044820152606401610458565b60006040518061018001604052808e81526020018d6001600160a01b031681526020018c6001600160a01b031681526020018b6001600160a01b031681526020018a81526020018981526020018881526020018781526020018681526020018581526020018481526020018381525090508060038e8154811061056457610564612e4f565b60009182526020918290208351600e90920201908155908201516001820180546001600160a01b039283166001600160a01b031991821617909155604084015160028401805491841691831691909117905560608401516003840180549190931691161790556080820151600482015560a0820151600582015560c0820151600682015560e0820151600782015561010082015160088201556101208201516009820155610140820151600a820155610160820151600b8201906106289082612eea565b5050506001600160a01b038c166000908152600160208181526040808420805460ff19168417905533845260029091529091205461066591612fc0565b336000908152600260205260408120919091558054908061068583612fd3565b919050555050505050505050505050505050565b6000600382815481106106ae576106ae612e4f565b60009182526020808320338452600d600e909302019190910181526040918290208054835181840281018401909452808452909183018282801561071157602002820191906000526020600020905b8154815260200190600101908083116106fd575b50505050509050600081511161075f5760405162461bcd60e51b8152602060048201526013602482015272139bc81391951cc81dd95c99481cdd185ad959606a1b6044820152606401610458565b6000806003848154811061077557610775612e4f565b60009182526020918290206040805161018081018252600e9093029091018054835260018101546001600160a01b039081169484019490945260028101548416918301919091526003810154909216606082015260048201546080820152600582015460a0820152600682015460c0820152600782015460e082015260088201546101008201526009820154610120820152600a820154610140820152600b820180549192916101608401919061082b90612e65565b80601f016020809104026020016040519081016040528092919081815260200182805461085790612e65565b80156108a45780601f10610879576101008083540402835291602001916108a4565b820191906000526020600020905b81548152906001019060200180831161088757829003601f168201915b505050505081525050905060005b83518110156109a9576108de858583815181106108d1576108d1612e4f565b6020026020010151610a16565b6108e89084612fc0565b925042600386815481106108fe576108fe612e4f565b90600052602060002090600e0201600c01600086848151811061092357610923612e4f565b6020026020010151815260200190815260200160002060020181905550426003868154811061095457610954612e4f565b90600052602060002090600e0201600c01600086848151811061097957610979612e4f565b602002602001015181526020019081526020016000206001018190555080806109a190612fd3565b9150506108b2565b5060408082015190516340c10f1960e01b8152336004820152602481018490526001600160a01b03909116906340c10f1990604401600060405180830381600087803b1580156109f857600080fd5b505af1158015610a0c573d6000803e3d6000fd5b5050505050505050565b600060038381548110610a2b57610a2b612e4f565b60009182526020808320858452600c600e90930201919091019052604090206003015460ff16610a9d5760405162461bcd60e51b815260206004820152601960248201527f4e4654206973206e6f74207374616b656420696e20706f6f6c000000000000006044820152606401610458565b600060038481548110610ab257610ab2612e4f565b60009182526020918290206040805161018081018252600e9093029091018054835260018101546001600160a01b039081169484019490945260028101548416918301919091526003810154909216606082015260048201546080820152600582015460a0820152600682015460c0820152600782015460e082015260088201546101008201526009820154610120820152600a820154610140820152600b8201805491929161016084019190610b6890612e65565b80601f0160208091040260200160405190810160405280929190818152602001828054610b9490612e65565b8015610be15780601f10610bb657610100808354040283529160200191610be1565b820191906000526020600020905b815481529060010190602001808311610bc457829003601f168201915b5050505050815250509050600060038581548110610c0157610c01612e4f565b90600052602060002090600e0201600c0160008581526020019081526020016000206001015442610c329190612fec565b90508160a00151811115610c47575060a08101515b6000826080015182610c599190612fff565b905082610100015181610c6c9190613021565b9695505050505050565b600060038481548110610c8b57610c8b612e4f565b600091825260209091206001600e909202010154600380546001600160a01b039092169250429186908110610cc257610cc2612e4f565b90600052602060002090600e02016000016009015410610d245760405162461bcd60e51b815260206004820152601860248201527f506f6f6c20686173206e6f7420737461727465642079657400000000000000006044820152606401610458565b4260038581548110610d3857610d38612e4f565b90600052602060002090600e0201600001600a015411610d8f5760405162461bcd60e51b8152602060048201526012602482015271141bdbdb081a5cc81c185cdcd959081bdd5d60721b6044820152606401610458565b60005b8281101561103c5760038581548110610dad57610dad612e4f565b90600052602060002090600e02016000016006015442610dcd9190612fec565b60038681548110610de057610de0612e4f565b90600052602060002090600e0201600c016000868685818110610e0557610e05612e4f565b9050602002013581526020019081526020016000206002015410610e6b5760405162461bcd60e51b815260206004820152601b60248201527f436f6f6c646f776e20686173206e6f7420706173736564206f757400000000006044820152606401610458565b816001600160a01b03166342842e0e3330878786818110610e8e57610e8e612e4f565b6040516001600160e01b031960e088901b1681526001600160a01b03958616600482015294909316602485015250602090910201356044820152606401600060405180830381600087803b158015610ee557600080fd5b505af1158015610ef9573d6000803e3d6000fd5b505050506040518060800160405280336001600160a01b031681526020014281526020014281526020016001151581525060038681548110610f3d57610f3d612e4f565b90600052602060002090600e0201600c016000868685818110610f6257610f62612e4f565b60209081029290920135835250818101929092526040908101600020835181546001600160a01b0319166001600160a01b0390911617815591830151600183015582015160028201556060909101516003918201805460ff1916911515919091179055805486908110610fd757610fd7612e4f565b60009182526020808320338452600d600e909302019190910190526040902084848381811061100857611008612e4f565b835460018101855560009485526020948590209190940292909201359190920155508061103481612fd3565b915050610d92565b5050505050565b60606003838154811061105857611058612e4f565b600091825260208083206001600160a01b0386168452600d600e90930201919091018152604091829020805483518184028101840190945280845290918301828280156110c457602002820191906000526020600020905b8154815260200190600101908083116110b0575b5050505050905092915050565b6110d9612704565b600382815481106110ec576110ec612e4f565b60009182526020918290206040805161018081018252600e9093029091018054835260018101546001600160a01b039081169484019490945260028101548416918301919091526003810154909216606082015260048201546080820152600582015460a0820152600682015460c0820152600782015460e082015260088201546101008201526009820154610120820152600a820154610140820152600b82018054919291610160840191906111a290612e65565b80601f01602080910402602001604051908101604052809291908181526020018280546111ce90612e65565b801561121b5780601f106111f05761010080835404028352916020019161121b565b820191906000526020600020905b8154815290600101906020018083116111fe57829003601f168201915b5050505050815250509050919050565b60006003848154811061124057611240612e4f565b60009182526020808320338452600d600e909302019190910190526040812091505b8281101561103c57336001600160a01b03166003868154811061128757611287612e4f565b90600052602060002090600e0201600c0160008686858181106112ac576112ac612e4f565b60209081029290920135835250810191909152604001600020546001600160a01b03161461131c5760405162461bcd60e51b815260206004820152601d60248201527f53656e646572206973206e6f74206f776e6572206f66206e66742069640000006044820152606401610458565b6003858154811061132f5761132f612e4f565b90600052602060002090600e0201600c01600085858481811061135457611354612e4f565b602090810292909201358352508101919091526040016000206003015460ff166113b45760405162461bcd60e51b8152602060048201526011602482015270139195081a5cc81b9bdd081cdd185ad959607a1b6044820152606401610458565b600385815481106113c7576113c7612e4f565b600091825260209091206001600e9092020101546001600160a01b03166342842e0e30338787868181106113fd576113fd612e4f565b6040516001600160e01b031960e088901b1681526001600160a01b03958616600482015294909316602485015250602090910201356044820152606401600060405180830381600087803b15801561145457600080fd5b505af1158015611468573d6000803e3d6000fd5b50505050604051806080016040528060006001600160a01b031681526020016000815260200142815260200160001515815250600386815481106114ae576114ae612e4f565b90600052602060002090600e0201600c0160008686858181106114d3576114d3612e4f565b602090810292909201358352508181019290925260409081016000908120845181546001600160a01b0319166001600160a01b039091161781559284015160018401559083015160028301556060909201516003909101805460ff19169115159190911790555b825481101561162a5784848381811061155557611555612e4f565b9050602002013583828154811061156e5761156e612e4f565b90600052602060002001540361161857805b835461158e90600190612fec565b8110156115ec57836115a1826001612fc0565b815481106115b1576115b1612e4f565b90600052602060002001548482815481106115ce576115ce612e4f565b600091825260209091200155806115e481612fd3565b915050611580565b50828054806115fd576115fd613038565b6001900381819060005260206000200160009055905561162a565b8061162281612fd3565b91505061153a565b508061163581612fd3565b915050611262565b6001600160a01b03891660009081526001602052604090205460ff16156116a65760405162461bcd60e51b815260206004820152601960248201527f436f6c6c656374696f6e20616c726561647920657869737473000000000000006044820152606401610458565b6040516301ffc9a760e01b81526380ac58cd60e01b60048201526001600160a01b038a16906301ffc9a790602401602060405180830381865afa1580156116f1573d6000803e3d6000fd5b505050506040513d601f19601f82011682018060405250810190611715919061304e565b6117795760405162461bcd60e51b815260206004820152602f60248201527f4e465420636f6e747261637420646f6573206e6f7420737570706f727473204560448201526e524337323120696e7465726661636560881b6064820152608401610458565b6040516301ffc9a760e01b81526336372b0760e01b60048201526001600160a01b038916906301ffc9a790602401602060405180830381865afa1580156117c4573d6000803e3d6000fd5b505050506040513d601f19601f820116820180604052508101906117e8919061304e565b61184b5760405162461bcd60e51b815260206004820152602e60248201527f52657761726420746f6b656e20646f6573206e6f7420737570706f727473204560448201526d5243323020696e7465726661636560901b6064820152608401610458565b600380546001018155600090815260405163c87b56dd60e01b8152600481018290526001600160a01b038b169063c87b56dd90602401600060405180830381865afa15801561189e573d6000803e3d6000fd5b505050506040513d6000823e601f3d908101601f191682016040526118c69190810190613070565b90506000600182516118d89190612fec565b67ffffffffffffffff8111156118f0576118f061281e565b6040519080825280601f01601f19166020018201604052801561191a576020820181803683370190505b50905060005b81518110156119815782818151811061193b5761193b612e4f565b602001015160f81c60f81b82828151811061195857611958612e4f565b60200101906001600160f81b031916908160001a9053508061197981612fd3565b915050611920565b50600060405180610180016040528060016003805490506119a29190612fec565b81526020018d6001600160a01b031681526020018c6001600160a01b03168152602001336001600160a01b031681526020018b81526020018a81526020018981526020018881526020018781526020018681526020018581526020018381525090508060036001600380549050611a199190612fec565b81548110611a2957611a29612e4f565b60009182526020918290208351600e90920201908155908201516001820180546001600160a01b039283166001600160a01b031991821617909155604084015160028401805491841691831691909117905560608401516003840180549190931691161790556080820151600482015560a0820151600582015560c0820151600682015560e0820151600782015561010082015160088201556101208201516009820155610140820151600a820155610160820151600b820190611aed9082612eea565b505060008054915080611aff83612fd3565b90915550506001600160a01b038c166000908152600160208181526040808420805460ff191684179055338452600290915290912054611b3e91612fc0565b336000818152600260205260409081902092909255825191517f3d82013e0d368d05bfb8b953d35bffd6eec15520773228de41146f306a241aec92611b94929082526001600160a01b0316602082015260400190565b60405180910390a1505050505050505050505050565b60408051608081018252600080825260208201819052918101829052606081019190915260038381548110611be157611be1612e4f565b60009182526020808320948352600e91909102909301600c018352604090819020815160808101835281546001600160a01b031681526001820154948101949094526002810154918401919091526003015460ff161515606083015250919050565b6060600060038681548110611c5a57611c5a612e4f565b60009182526020918290206040805161018081018252600e9093029091018054835260018101546001600160a01b039081169484019490945260028101548416918301919091526003810154909216606082015260048201546080820152600582015460a0820152600682015460c0820152600782015460e082015260088201546101008201526009820154610120820152600a820154610140820152600b8201805491929161016084019190611d1090612e65565b80601f0160208091040260200160405190810160405280929190818152602001828054611d3c90612e65565b8015611d895780601f10611d5e57610100808354040283529160200191611d89565b820191906000526020600020905b815481529060010190602001808311611d6c57829003601f168201915b505050505081525050905060008484611da29190612fec565b67ffffffffffffffff811115611dba57611dba61281e565b604051908082528060200260200182016040528015611e0f57816020015b611dfc60405180606001604052806000815260200160008152602001606081525090565b815260200190600190039081611dd85790505b50905060005b84861015611f795760038881548110611e3057611e30612e4f565b90600052602060002090600e0201600d016000886001600160a01b03166001600160a01b031681526020019081526020016000208681548110611e7557611e75612e4f565b9060005260206000200154828281518110611e9257611e92612e4f565b60200260200101516000018181525050611ec988838381518110611eb857611eb8612e4f565b602002602001015160000151610a16565b828281518110611edb57611edb612e4f565b60200260200101516020018181525050826101600151611f17838381518110611f0657611f06612e4f565b602002602001015160000151612599565b604051602001611f289291906130e7565b604051602081830303815290604052828281518110611f4957611f49612e4f565b6020026020010151604001819052508080611f6390612fd3565b9150508580611f7190612fd3565b965050611e15565b509695505050505050565b60038181548110611f9757611f97612e4f565b60009182526020909120600e90910201600301546001600160a01b031633146120025760405162461bcd60e51b815260206004820152601a60248201527f53656e646572206973206e6f7420706f6f6c2063726561746f720000000000006044820152606401610458565b60006003828154811061201757612017612e4f565b600091825260208083206001600e909302018201546001600160a01b03168084528282526040808520805460ff19169055338552600290925292205491925061205f91612fec565b336000908152600260205260408120919091558054908061207f83613116565b91905055506003828154811061209757612097612e4f565b600091825260208220600e909102018181556001810180546001600160a01b0319908116909155600282018054821690556003820180549091169055600481018290556005810182905560068101829055600781018290556008810182905560098101829055600a8101829055908181612114600b830182612780565b505050505050565b600354606090808411156121815760405162461bcd60e51b815260206004820152602660248201527f4f6666736574206d757374206265206c657373207468656e205f706f6f6c73206044820152650d8cadccee8d60d31b6064820152608401610458565b8061218c8486612fc0565b11156121f15760405162461bcd60e51b815260206004820152602e60248201527f4f6666736574202b206c696d696c206d757374206265206c657373207468656e60448201526d040bee0deded8e640d8cadccee8d60931b6064820152608401610458565b60008367ffffffffffffffff81111561220c5761220c61281e565b60405190808252806020026020018201604052801561224557816020015b612232612704565b81526020019060019003908161222a5790505b50905060005b8286101561241c5760006001600160a01b03166003878154811061227157612271612e4f565b600091825260209091206001600e9092020101546001600160a01b03161461240a57600386815481106122a6576122a6612e4f565b60009182526020918290206040805161018081018252600e9093029091018054835260018101546001600160a01b039081169484019490945260028101548416918301919091526003810154909216606082015260048201546080820152600582015460a0820152600682015460c0820152600782015460e082015260088201546101008201526009820154610120820152600a820154610140820152600b820180549192916101608401919061235c90612e65565b80601f016020809104026020016040519081016040528092919081815260200182805461238890612e65565b80156123d55780601f106123aa576101008083540402835291602001916123d5565b820191906000526020600020905b8154815290600101906020018083116123b857829003601f168201915b5050505050815250508282815181106123f0576123f0612e4f565b6020026020010181905250808061240690612fd3565b9150505b8561241481612fd3565b96505061224b565b50949350505050565b6001600160a01b0381166000908152600260205260408120546060919067ffffffffffffffff81111561245a5761245a61281e565b60405190808252806020026020018201604052801561249f57816020015b60408051808201909152600080825260208201528152602001906001900390816124785790505b5090506000805b60035481101561259057846001600160a01b0316600382815481106124cd576124cd612e4f565b600091825260209091206003600e9092020101546001600160a01b03160361257e578083838151811061250257612502612e4f565b602090810291909101015152600380548290811061252257612522612e4f565b600091825260209091206001600e90920201015483516001600160a01b039091169084908490811061255657612556612e4f565b6020908102919091018101516001600160a01b039092169101528161257a81612fd3565b9250505b8061258881612fd3565b9150506124a6565b50909392505050565b606060006125a68361262c565b600101905060008167ffffffffffffffff8111156125c6576125c661281e565b6040519080825280601f01601f1916602001820160405280156125f0576020820181803683370190505b5090508181016020015b600019016f181899199a1a9b1b9c1cb0b131b232b360811b600a86061a8153600a85049450846125fa57509392505050565b60008072184f03e93ff9f4daa797ed6e38ed64bf6a1f0160401b831061266b5772184f03e93ff9f4daa797ed6e38ed64bf6a1f0160401b830492506040015b6d04ee2d6d415b85acef81000000008310612697576d04ee2d6d415b85acef8100000000830492506020015b662386f26fc1000083106126b557662386f26fc10000830492506010015b6305f5e10083106126cd576305f5e100830492506008015b61271083106126e157612710830492506004015b606483106126f3576064830492506002015b600a83106103e85760010192915050565b6040518061018001604052806000815260200160006001600160a01b0316815260200160006001600160a01b0316815260200160006001600160a01b0316815260200160008152602001600081526020016000815260200160008152602001600081526020016000815260200160008152602001606081525090565b50805461278c90612e65565b6000825580601f1061279c575050565b601f0160209004906000526020600020908101906127ba91906127bd565b50565b5b808211156127d257600081556001016127be565b5090565b80356001600160a01b03811681146127ed57600080fd5b919050565b6000806040838503121561280557600080fd5b82359150612815602084016127d6565b90509250929050565b634e487b7160e01b600052604160045260246000fd5b604051601f8201601f1916810167ffffffffffffffff8111828210171561285d5761285d61281e565b604052919050565b600067ffffffffffffffff82111561287f5761287f61281e565b50601f01601f191660200190565b60006128a061289b84612865565b612834565b90508281528383830111156128b457600080fd5b828260208301376000602084830101529392505050565b600082601f8301126128dc57600080fd5b6128eb8383356020850161288d565b9392505050565b6000806000806000806000806000806000806101808d8f03121561291557600080fd5b8c359b5061292560208e016127d6565b9a5061293360408e016127d6565b995061294160608e016127d6565b985060808d0135975060a08d0135965060c08d0135955060e08d013594506101008d013593506101208d013592506101408d0135915067ffffffffffffffff6101608e0135111561299157600080fd5b6129a28e6101608f01358f016128cb565b90509295989b509295989b509295989b565b6000602082840312156129c657600080fd5b5035919050565b600080604083850312156129e057600080fd5b50508035926020909101359150565b60008060008060808587031215612a0557600080fd5b612a0e856127d6565b9350612a1c602086016127d6565b925060408501359150606085013567ffffffffffffffff811115612a3f57600080fd5b8501601f81018713612a5057600080fd5b612a5f8782356020840161288d565b91505092959194509250565b600080600060408486031215612a8057600080fd5b83359250602084013567ffffffffffffffff80821115612a9f57600080fd5b818601915086601f830112612ab357600080fd5b813581811115612ac257600080fd5b8760208260051b8501011115612ad757600080fd5b6020830194508093505050509250925092565b6020808252825182820181905260009190848201906040850190845b81811015612b2257835183529284019291840191600101612b06565b50909695505050505050565b600060208284031215612b4057600080fd5b6128eb826127d6565b60005b83811015612b64578181015183820152602001612b4c565b50506000910152565b60008151808452612b85816020860160208601612b49565b601f01601f19169290920160200192915050565b6000610180825184526020830151612bbc60208601826001600160a01b03169052565b506040830151612bd760408601826001600160a01b03169052565b506060830151612bf260608601826001600160a01b03169052565b506080830151608085015260a083015160a085015260c083015160c085015260e083015160e0850152610100808401518186015250610120808401518186015250610140808401518186015250610160808401518282870152610c6c83870182612b6d565b6020815260006128eb6020830184612b99565b60008060008060008060008060006101208a8c031215612c8957600080fd5b612c928a6127d6565b9850612ca060208b016127d6565b989b989a505050506040870135966060810135966080820135965060a0820135955060c0820135945060e08201359350610100909101359150565b60008060008060808587031215612cf157600080fd5b84359350612d01602086016127d6565b93969395505050506040820135916060013590565b60006020808301818452808551808352604092508286019150828160051b87010184880160005b83811015612d8757888303603f1901855281518051845287810151888501528601516060878501819052612d7381860183612b6d565b968901969450505090860190600101612d3d565b509098975050505050505050565b6000602080830181845280855180835260408601915060408160051b870101925083870160005b82811015612dea57603f19888603018452612dd8858351612b99565b94509285019290850190600101612dbc565b5092979650505050505050565b602080825282518282018190526000919060409081850190868401855b82811015612e42578151805185528601516001600160a01b0316868501529284019290850190600101612e14565b5091979650505050505050565b634e487b7160e01b600052603260045260246000fd5b600181811c90821680612e7957607f821691505b602082108103612e9957634e487b7160e01b600052602260045260246000fd5b50919050565b601f821115612ee557600081815260208120601f850160051c81016020861015612ec65750805b601f850160051c820191505b8181101561211457828155600101612ed2565b505050565b815167ffffffffffffffff811115612f0457612f0461281e565b612f1881612f128454612e65565b84612e9f565b602080601f831160018114612f4d5760008415612f355750858301515b600019600386901b1c1916600185901b178555612114565b600085815260208120601f198616915b82811015612f7c57888601518255948401946001909101908401612f5d565b5085821015612f9a5787850151600019600388901b60f8161c191681555b5050505050600190811b01905550565b634e487b7160e01b600052601160045260246000fd5b808201808211156103e8576103e8612faa565b600060018201612fe557612fe5612faa565b5060010190565b818103818111156103e8576103e8612faa565b60008261301c57634e487b7160e01b600052601260045260246000fd5b500490565b80820281158282048414176103e8576103e8612faa565b634e487b7160e01b600052603160045260246000fd5b60006020828403121561306057600080fd5b815180151581146128eb57600080fd5b60006020828403121561308257600080fd5b815167ffffffffffffffff81111561309957600080fd5b8201601f810184136130aa57600080fd5b80516130b861289b82612865565b8181528560208385010111156130cd57600080fd5b6130de826020830160208601612b49565b95945050505050565b600083516130f9818460208801612b49565b83519083019061310d818360208801612b49565b01949350505050565b60008161312557613125612faa565b50600019019056fea2646970667358221220e28f597f62732c772696f8ea9d76faaa54e31571ff3a4faf83c945198aae035664736f6c63430008110033",
  "linkReferences": {},
  "deployedLinkReferences": {}
}