{
  "_format": "hh-sol-artifact-1",
  "contractName": "NFTStaking",
  "sourceName": "contracts/NFTStaking.sol",
  "abi": [
    {
      "inputs": [
        {
          "internalType": "uint256",
          "name": "poolId",
          "type": "uint256"
        },
        {
          "internalType": "uint256",
          "name": "nftId",
          "type": "uint256"
        }
      ],
      "name": "calculateReward",
      "outputs": [
        {
          "internalType": "uint256",
          "name": "reward",
          "type": "uint256"
        }
      ],
      "stateMutability": "view",
      "type": "function"
    },
    {
      "inputs": [
        {
          "internalType": "uint256",
          "name": "poolId",
          "type": "uint256"
        }
      ],
      "name": "claimRewards",
      "outputs": [],
      "stateMutability": "nonpayable",
      "type": "function"
    },
    {
      "inputs": [
        {
          "internalType": "uint256",
          "name": "poolId",
          "type": "uint256"
        },
        {
          "internalType": "uint256",
          "name": "nftId",
          "type": "uint256"
        }
      ],
      "name": "getNFTInfo",
      "outputs": [
        {
          "components": [
            {
              "internalType": "address",
              "name": "tokenOwner",
              "type": "address"
            },
            {
              "internalType": "uint256",
              "name": "stakedStartTime",
              "type": "uint256"
            },
            {
              "internalType": "uint256",
              "name": "lastUpdate",
              "type": "uint256"
            },
            {
              "internalType": "bool",
              "name": "isStaked",
              "type": "bool"
            }
          ],
          "internalType": "struct NFTStaking.NFTInfo",
          "name": "",
          "type": "tuple"
        }
      ],
      "stateMutability": "view",
      "type": "function"
    },
    {
      "inputs": [
        {
          "internalType": "uint256",
          "name": "poolId",
          "type": "uint256"
        },
        {
          "internalType": "address",
          "name": "staker",
          "type": "address"
        }
      ],
      "name": "getNFTStakedLength",
      "outputs": [
        {
          "internalType": "uint256",
          "name": "",
          "type": "uint256"
        }
      ],
      "stateMutability": "view",
      "type": "function"
    },
    {
      "inputs": [
        {
          "internalType": "uint256",
          "name": "index",
          "type": "uint256"
        }
      ],
      "name": "getPoolInfo",
      "outputs": [
        {
          "components": [
            {
              "internalType": "address",
              "name": "collectionAddress",
              "type": "address"
            },
            {
              "internalType": "address",
              "name": "rewardTokenAddress",
              "type": "address"
            },
            {
              "internalType": "uint256",
              "name": "minStakeSeconds",
              "type": "uint256"
            },
            {
              "internalType": "uint256",
              "name": "maxStakeSeconds",
              "type": "uint256"
            },
            {
              "internalType": "uint256",
              "name": "cooldownSeconds",
              "type": "uint256"
            },
            {
              "internalType": "uint256",
              "name": "timeUnitSeconds",
              "type": "uint256"
            },
            {
              "internalType": "uint256",
              "name": "rewardsPerTimeUnit",
              "type": "uint256"
            },
            {
              "internalType": "uint256",
              "name": "startTimestamp",
              "type": "uint256"
            },
            {
              "internalType": "uint256",
              "name": "endTimestamp",
              "type": "uint256"
            }
          ],
          "internalType": "struct NFTStaking.StakingInfo",
          "name": "",
          "type": "tuple"
        }
      ],
      "stateMutability": "view",
      "type": "function"
    },
    {
      "inputs": [
        {
          "internalType": "uint256",
          "name": "poolId",
          "type": "uint256"
        },
        {
          "internalType": "address",
          "name": "staker",
          "type": "address"
        },
        {
          "internalType": "uint256",
          "name": "start",
          "type": "uint256"
        },
        {
          "internalType": "uint256",
          "name": "end",
          "type": "uint256"
        }
      ],
      "name": "getStakeInfo",
      "outputs": [
        {
          "internalType": "uint256[]",
          "name": "tokensStaked",
          "type": "uint256[]"
        },
        {
          "internalType": "uint256",
          "name": "rewards",
          "type": "uint256"
        }
      ],
      "stateMutability": "view",
      "type": "function"
    },
    {
      "inputs": [
        {
          "internalType": "address",
          "name": "collectionAddress",
          "type": "address"
        },
        {
          "internalType": "address",
          "name": "rewardTokenAddress",
          "type": "address"
        },
        {
          "internalType": "uint256",
          "name": "minStakeSeconds",
          "type": "uint256"
        },
        {
          "internalType": "uint256",
          "name": "maxStakeSeconds",
          "type": "uint256"
        },
        {
          "internalType": "uint256",
          "name": "cooldownSeconds",
          "type": "uint256"
        },
        {
          "internalType": "uint256",
          "name": "timeUnitSeconds",
          "type": "uint256"
        },
        {
          "internalType": "uint256",
          "name": "rewardsPerTimeUnit",
          "type": "uint256"
        },
        {
          "internalType": "uint256",
          "name": "startTimestamp",
          "type": "uint256"
        },
        {
          "internalType": "uint256",
          "name": "endTimestamp",
          "type": "uint256"
        }
      ],
      "name": "initPool",
      "outputs": [],
      "stateMutability": "nonpayable",
      "type": "function"
    },
    {
      "inputs": [
        {
          "internalType": "address",
          "name": "",
          "type": "address"
        }
      ],
      "name": "isPoolExists",
      "outputs": [
        {
          "internalType": "bool",
          "name": "",
          "type": "bool"
        }
      ],
      "stateMutability": "view",
      "type": "function"
    },
    {
      "inputs": [
        {
          "internalType": "address",
          "name": "",
          "type": "address"
        },
        {
          "internalType": "address",
          "name": "",
          "type": "address"
        },
        {
          "internalType": "uint256",
          "name": "",
          "type": "uint256"
        },
        {
          "internalType": "bytes",
          "name": "",
          "type": "bytes"
        }
      ],
      "name": "onERC721Received",
      "outputs": [
        {
          "internalType": "bytes4",
          "name": "",
          "type": "bytes4"
        }
      ],
      "stateMutability": "nonpayable",
      "type": "function"
    },
    {
      "inputs": [],
      "name": "poolsCounter",
      "outputs": [
        {
          "internalType": "uint256",
          "name": "",
          "type": "uint256"
        }
      ],
      "stateMutability": "view",
      "type": "function"
    },
    {
      "inputs": [
        {
          "internalType": "uint256",
          "name": "poolId",
          "type": "uint256"
        },
        {
          "internalType": "uint256[]",
          "name": "nftIds",
          "type": "uint256[]"
        }
      ],
      "name": "stake",
      "outputs": [],
      "stateMutability": "nonpayable",
      "type": "function"
    },
    {
      "inputs": [
        {
          "internalType": "uint256",
          "name": "poolId",
          "type": "uint256"
        },
        {
          "internalType": "uint256[]",
          "name": "nftIds",
          "type": "uint256[]"
        }
      ],
      "name": "withDraw",
      "outputs": [],
      "stateMutability": "nonpayable",
      "type": "function"
    }
  ],
  "bytecode": "0x608060405234801561001057600080fd5b50611ba4806100206000396000f3fe608060405234801561001057600080fd5b50600436106100b45760003560e01c806341c1bdc11161007157806341c1bdc1146101d957806355f1a18f146101ec5780635d0eb31a146101ff578063639a2905146102085780637edb992c1461023b57806396cd299f1461028c57600080fd5b80630186b043146100b95780630962ef79146100df57806313ed0846146100f4578063150b7a021461010757806316f605571461013e5780632f380b3514610151575b600080fd5b6100cc6100c7366004611777565b6102ad565b6040519081526020015b60405180910390f35b6100f26100ed3660046117a7565b6102f4565b005b6100cc6101023660046117c0565b61064a565b6101256101153660046117f8565b630a85bd0160e11b949350505050565b6040516001600160e01b031990911681526020016100d6565b6100f261014c3660046118d8565b61076c565b61016461015f3660046117a7565b610b33565b6040516100d6919081516001600160a01b0390811682526020808401519091169082015260408083015190820152606080830151908201526080808301519082015260a0828101519082015260c0808301519082015260e0808301519082015261010091820151918101919091526101200190565b6100f26101e7366004611957565b610c2e565b6100f26101fa3660046118d8565b611035565b6100cc60005481565b61022b6102163660046119cc565b60016020526000908152604090205460ff1681565b60405190151581526020016100d6565b61024e6102493660046117c0565b611438565b6040516100d6919081516001600160a01b03168152602080830151908201526040808301519082015260609182015115159181019190915260800190565b61029f61029a3660046119f0565b6114d1565b6040516100d6929190611a2d565b6000600283815481106102c2576102c2611a75565b600091825260208083206001600160a01b0386168452600a600b90930201919091019052604090205490505b92915050565b60006002828154811061030957610309611a75565b60009182526020808320338452600a600b909302019190910181526040918290208054835181840281018401909452808452909183018282801561036c57602002820191906000526020600020905b815481526020019060010190808311610358575b5050505050905060008151116103bf5760405162461bcd60e51b8152602060048201526013602482015272139bc81391951cc81dd95c99481cdd185ad959606a1b60448201526064015b60405180910390fd5b600080600284815481106103d5576103d5611a75565b600091825260208083206040805161012081018252600b90940290910180546001600160a01b039081168552600182015416928401929092526002820154908301526003810154606083015260048101546080830152600581015460a0830152600681015460c0830152600781015460e08301526008015461010082015291505b83518110156105cb5760008260600151811061047857506060820151806104d9565b6002868154811061048b5761048b611a75565b90600052602060002090600b020160090160008684815181106104b0576104b0611a75565b6020026020010151815260200190815260200160002060020154426104d59190611aa1565b9050805b5060008360400151826104ec9190611ab4565b90508360c00151816104fe9190611ad6565b6105089086611aed565b9450426002888154811061051e5761051e611a75565b90600052602060002090600b0201600901600088868151811061054357610543611a75565b6020026020010151815260200190815260200160002060020181905550426002888154811061057457610574611a75565b90600052602060002090600b0201600901600088868151811061059957610599611a75565b6020026020010151815260200190815260200160002060010181905550505080806105c390611b00565b915050610456565b50602081015160405163a9059cbb60e01b8152336004820152602481018490526001600160a01b039091169063a9059cbb906044016020604051808303816000875af115801561061f573d6000803e3d6000fd5b505050506040513d601f19601f820116820180604052508101906106439190611b19565b5050505050565b6000806002848154811061066057610660611a75565b600091825260208083206040805161012081018252600b90940290910180546001600160a01b0390811685526001820154169284019290925260028201549083015260038101546060830181905260048201546080840152600582015460a0840152600682015460c0840152600782015460e08401526008909101546101008301529092506106f5575060608101518061073d565b6002858154811061070857610708611a75565b90600052602060002090600b0201600901600085815260200190815260200160002060010154426107399190611aa1565b9050805b5060008260400151826107509190611ab4565b90508260c00151816107629190611ad6565b9695505050505050565b60006002848154811061078157610781611a75565b60009182526020909120600b9091020154600280546001600160a01b0390921692504291869081106107b5576107b5611a75565b90600052602060002090600b020160000160070154106108175760405162461bcd60e51b815260206004820152601860248201527f506f6f6c20686173206e6f74207374617274656420796574000000000000000060448201526064016103b6565b426002858154811061082b5761082b611a75565b90600052602060002090600b020160000160080154116108825760405162461bcd60e51b8152602060048201526012602482015271141bdbdb081a5cc81c185cdcd959081bdd5d60721b60448201526064016103b6565b60005b8281101561064357600285815481106108a0576108a0611a75565b90600052602060002090600b020160000160040154426108c09190611aa1565b600286815481106108d3576108d3611a75565b90600052602060002090600b020160090160008686858181106108f8576108f8611a75565b905060200201358152602001908152602001600020600201541061095e5760405162461bcd60e51b815260206004820152601b60248201527f436f6f6c646f776e20686173206e6f7420706173736564206f7574000000000060448201526064016103b6565b816001600160a01b03166342842e0e333087878681811061098157610981611a75565b6040516001600160e01b031960e088901b1681526001600160a01b03958616600482015294909316602485015250602090910201356044820152606401600060405180830381600087803b1580156109d857600080fd5b505af11580156109ec573d6000803e3d6000fd5b505050506040518060800160405280336001600160a01b031681526020014281526020014281526020016001151581525060028681548110610a3057610a30611a75565b90600052602060002090600b02016009016000868685818110610a5557610a55611a75565b60209081029290920135835250818101929092526040908101600020835181546001600160a01b0319166001600160a01b039091161781559183015160018301558201516002808301919091556060909201516003909101805460ff1916911515919091179055805486908110610ace57610ace611a75565b60009182526020808320338452600a600b9093020191909101905260409020848483818110610aff57610aff611a75565b8354600181018555600094855260209485902091909402929092013591909201555080610b2b81611b00565b915050610885565b610b9460405180610120016040528060006001600160a01b0316815260200160006001600160a01b03168152602001600081526020016000815260200160008152602001600081526020016000815260200160008152602001600081525090565b60028281548110610ba757610ba7611a75565b60009182526020918290206040805161012081018252600b90930290910180546001600160a01b039081168452600182015416938301939093526002830154908201526003820154606082015260048201546080820152600582015460a0820152600682015460c0820152600782015460e082015260089091015461010082015292915050565b6001600160a01b03891660009081526001602052604090205460ff1615610c975760405162461bcd60e51b815260206004820152601960248201527f436f6c6c656374696f6e20616c7265616479206578697374730000000000000060448201526064016103b6565b6040516301ffc9a760e01b81526380ac58cd60e01b60048201526001600160a01b038a16906301ffc9a790602401602060405180830381865afa158015610ce2573d6000803e3d6000fd5b505050506040513d601f19601f82011682018060405250810190610d069190611b19565b610d6a5760405162461bcd60e51b815260206004820152602f60248201527f4e465420636f6e747261637420646f6573206e6f7420737570706f727473204560448201526e524337323120696e7465726661636560881b60648201526084016103b6565b6040516301ffc9a760e01b81526336372b0760e01b60048201526001600160a01b038916906301ffc9a790602401602060405180830381865afa158015610db5573d6000803e3d6000fd5b505050506040513d601f19601f82011682018060405250810190610dd99190611b19565b610e3c5760405162461bcd60e51b815260206004820152602e60248201527f52657761726420746f6b656e20646f6573206e6f7420737570706f727473204560448201526d5243323020696e7465726661636560901b60648201526084016103b6565b336001600160a01b0316896001600160a01b0316638da5cb5b6040518163ffffffff1660e01b8152600401602060405180830381865afa158015610e84573d6000803e3d6000fd5b505050506040513d601f19601f82011682018060405250810190610ea89190611b3b565b6001600160a01b031614610f0a5760405162461bcd60e51b8152602060048201526024808201527f53656e646572206973206e6f7420616e204f776e6572206f6620636f6c6c65636044820152633a34b7b760e11b60648201526084016103b6565b60028054600101808255600082815260408051610120810182526001600160a01b03808f1682528d1660208201529081018b9052606081018a90526080810189905260a0810188905260c0810187905260e0810186905261010081018590529054909283929091908110610f8057610f80611a75565b600091825260208083208451600b9093020180546001600160a01b039384166001600160a01b0319918216178255858301516001808401805492871692909316919091179091556040808701516002840155606087015160038401556080870151600484015560a0870151600584015560c0870151600684015560e08701516007840155610100909601516008909201919091559d90911682528c905220805460ff1916909a17909955505050505050505050565b60006002848154811061104a5761104a611a75565b60009182526020808320338452600a600b909302019190910190526040812091505b8281101561064357336001600160a01b03166002868154811061109157611091611a75565b90600052602060002090600b020160090160008686858181106110b6576110b6611a75565b60209081029290920135835250810191909152604001600020546001600160a01b0316146111265760405162461bcd60e51b815260206004820152601d60248201527f53656e646572206973206e6f74206f776e6572206f66206e667420696400000060448201526064016103b6565b6002858154811061113957611139611a75565b90600052602060002090600b0201600901600085858481811061115e5761115e611a75565b602090810292909201358352508101919091526040016000206003015460ff166111be5760405162461bcd60e51b8152602060048201526011602482015270139195081a5cc81b9bdd081cdd185ad959607a1b60448201526064016103b6565b600285815481106111d1576111d1611a75565b60009182526020909120600b90910201546001600160a01b03166342842e0e303387878681811061120457611204611a75565b6040516001600160e01b031960e088901b1681526001600160a01b03958616600482015294909316602485015250602090910201356044820152606401600060405180830381600087803b15801561125b57600080fd5b505af115801561126f573d6000803e3d6000fd5b50505050604051806080016040528060006001600160a01b031681526020016000815260200142815260200160001515815250600286815481106112b5576112b5611a75565b90600052602060002090600b020160090160008686858181106112da576112da611a75565b602090810292909201358352508181019290925260409081016000908120845181546001600160a01b0319166001600160a01b039091161781559284015160018401559083015160028301556060909201516003909101805460ff19169115159190911790555b82548110156114255784848381811061135c5761135c611a75565b9050602002013583828154811061137557611375611a75565b90600052602060002001540361141357805b83548110156113e7578361139c826001611aed565b815481106113ac576113ac611a75565b90600052602060002001548482815481106113c9576113c9611a75565b600091825260209091200155806113df81611b00565b915050611387565b50828054806113f8576113f8611b58565b60019003818190600052602060002001600090559055611425565b8061141d81611b00565b915050611341565b508061143081611b00565b91505061106c565b6040805160808101825260008082526020820181905291810182905260608101919091526002838154811061146f5761146f611a75565b60009182526020808320948352600b919091029093016009018352604090819020815160808101835281546001600160a01b031681526001820154948101949094526002810154918401919091526003015460ff161515606083015250919050565b606060008383116115245760405162461bcd60e51b815260206004820152601b60248201527f27656e6427206d7573742062652061626f76652027737461727427000000000060448201526064016103b6565b60006002878154811061153957611539611a75565b600091825260208083206040805161012081018252600b90940290910180546001600160a01b039081168552600182015416928401929092526002820154908301526003810154606083015260048101546080830152600581015460a0830152600681015460c0830152600781015460e08301526008015461010082015291506115c38686611aa1565b67ffffffffffffffff8111156115db576115db6117e2565b604051908082528060200260200182016040528015611604578160200160208202803683370190505b5090505b848610156116a2576002888154811061162357611623611a75565b90600052602060002090600b0201600a016000886001600160a01b03166001600160a01b03168152602001908152602001600020868154811061166857611668611a75565b906000526020600020015481878151811061168557611685611a75565b60209081029190910101528561169a81611b00565b965050611608565b8093505b84861015611754576000600289815481106116c3576116c3611a75565b90600052602060002090600b020160090160008689815181106116e8576116e8611a75565b60200260200101518152602001908152602001600020600101544261170d9190611aa1565b905060008360400151826117219190611ab4565b90508360c00151816117339190611ad6565b61173d9086611aed565b94505050858061174c90611b00565b9650506116a6565b505094509492505050565b6001600160a01b038116811461177457600080fd5b50565b6000806040838503121561178a57600080fd5b82359150602083013561179c8161175f565b809150509250929050565b6000602082840312156117b957600080fd5b5035919050565b600080604083850312156117d357600080fd5b50508035926020909101359150565b634e487b7160e01b600052604160045260246000fd5b6000806000806080858703121561180e57600080fd5b84356118198161175f565b935060208501356118298161175f565b925060408501359150606085013567ffffffffffffffff8082111561184d57600080fd5b818701915087601f83011261186157600080fd5b813581811115611873576118736117e2565b604051601f8201601f19908116603f0116810190838211818310171561189b5761189b6117e2565b816040528281528a60208487010111156118b457600080fd5b82602086016020830137600060208483010152809550505050505092959194509250565b6000806000604084860312156118ed57600080fd5b83359250602084013567ffffffffffffffff8082111561190c57600080fd5b818601915086601f83011261192057600080fd5b81358181111561192f57600080fd5b8760208260051b850101111561194457600080fd5b6020830194508093505050509250925092565b60008060008060008060008060006101208a8c03121561197657600080fd5b89356119818161175f565b985060208a01356119918161175f565b989b989a505050506040870135966060810135966080820135965060a0820135955060c0820135945060e08201359350610100909101359150565b6000602082840312156119de57600080fd5b81356119e98161175f565b9392505050565b60008060008060808587031215611a0657600080fd5b843593506020850135611a188161175f565b93969395505050506040820135916060013590565b604080825283519082018190526000906020906060840190828701845b82811015611a6657815184529284019290840190600101611a4a565b50505092019290925292915050565b634e487b7160e01b600052603260045260246000fd5b634e487b7160e01b600052601160045260246000fd5b818103818111156102ee576102ee611a8b565b600082611ad157634e487b7160e01b600052601260045260246000fd5b500490565b80820281158282048414176102ee576102ee611a8b565b808201808211156102ee576102ee611a8b565b600060018201611b1257611b12611a8b565b5060010190565b600060208284031215611b2b57600080fd5b815180151581146119e957600080fd5b600060208284031215611b4d57600080fd5b81516119e98161175f565b634e487b7160e01b600052603160045260246000fdfea26469706673582212200c07c1ed78a0a9918475adc12f2699e2511bb5c2e69ef32ea225a0d9f167dd7064736f6c63430008110033",
  "linkReferences": {},
  "deployedLinkReferences": {}
}