{
  "_format": "hh-sol-artifact-1",
  "contractName": "NFTStaking",
  "sourceName": "contracts/NFTStaking.sol",
  "abi": [
    {
      "inputs": [],
      "stateMutability": "nonpayable",
      "type": "constructor"
    },
    {
      "anonymous": false,
      "inputs": [
        {
          "indexed": false,
          "internalType": "uint256",
          "name": "poolId",
          "type": "uint256"
        },
        {
          "indexed": false,
          "internalType": "address",
          "name": "creator",
          "type": "address"
        }
      ],
      "name": "PoolInitialized",
      "type": "event"
    },
    {
      "inputs": [],
      "name": "admin",
      "outputs": [
        {
          "internalType": "address",
          "name": "",
          "type": "address"
        }
      ],
      "stateMutability": "view",
      "type": "function"
    },
    {
      "inputs": [
        {
          "internalType": "uint256",
          "name": "poolId",
          "type": "uint256"
        },
        {
          "internalType": "uint256",
          "name": "nftId",
          "type": "uint256"
        }
      ],
      "name": "calculateReward",
      "outputs": [
        {
          "internalType": "uint256",
          "name": "reward",
          "type": "uint256"
        }
      ],
      "stateMutability": "view",
      "type": "function"
    },
    {
      "inputs": [
        {
          "internalType": "uint256",
          "name": "poolId",
          "type": "uint256"
        }
      ],
      "name": "claimRewards",
      "outputs": [],
      "stateMutability": "nonpayable",
      "type": "function"
    },
    {
      "inputs": [
        {
          "internalType": "address",
          "name": "",
          "type": "address"
        }
      ],
      "name": "createdPools",
      "outputs": [
        {
          "internalType": "uint256",
          "name": "",
          "type": "uint256"
        }
      ],
      "stateMutability": "view",
      "type": "function"
    },
    {
      "inputs": [
        {
          "internalType": "uint256",
          "name": "offset",
          "type": "uint256"
        },
        {
          "internalType": "uint256",
          "name": "limit",
          "type": "uint256"
        }
      ],
      "name": "getAllPools",
      "outputs": [
        {
          "components": [
            {
              "internalType": "uint256",
              "name": "poolId",
              "type": "uint256"
            },
            {
              "internalType": "address",
              "name": "collectionAddress",
              "type": "address"
            },
            {
              "internalType": "address",
              "name": "rewardTokenAddress",
              "type": "address"
            },
            {
              "internalType": "address",
              "name": "creatorAddress",
              "type": "address"
            },
            {
              "internalType": "uint256",
              "name": "minStakeSeconds",
              "type": "uint256"
            },
            {
              "internalType": "uint256",
              "name": "maxStakeSeconds",
              "type": "uint256"
            },
            {
              "internalType": "uint256",
              "name": "cooldownSeconds",
              "type": "uint256"
            },
            {
              "internalType": "uint256",
              "name": "timeUnitSeconds",
              "type": "uint256"
            },
            {
              "internalType": "uint256",
              "name": "rewardsPerTimeUnit",
              "type": "uint256"
            },
            {
              "internalType": "uint256",
              "name": "startTimestamp",
              "type": "uint256"
            },
            {
              "internalType": "uint256",
              "name": "endTimestamp",
              "type": "uint256"
            },
            {
              "internalType": "string",
              "name": "baseURI",
              "type": "string"
            }
          ],
          "internalType": "struct NFTStaking.StakingInfo[]",
          "name": "",
          "type": "tuple[]"
        }
      ],
      "stateMutability": "view",
      "type": "function"
    },
    {
      "inputs": [
        {
          "internalType": "uint256",
          "name": "poolId",
          "type": "uint256"
        },
        {
          "internalType": "uint256",
          "name": "nftId",
          "type": "uint256"
        }
      ],
      "name": "getNFTInfo",
      "outputs": [
        {
          "components": [
            {
              "internalType": "address",
              "name": "tokenOwner",
              "type": "address"
            },
            {
              "internalType": "uint256",
              "name": "stakedStartTime",
              "type": "uint256"
            },
            {
              "internalType": "uint256",
              "name": "lastUpdate",
              "type": "uint256"
            },
            {
              "internalType": "bool",
              "name": "isStaked",
              "type": "bool"
            }
          ],
          "internalType": "struct NFTStaking.NFTInfo",
          "name": "",
          "type": "tuple"
        }
      ],
      "stateMutability": "view",
      "type": "function"
    },
    {
      "inputs": [
        {
          "internalType": "uint256",
          "name": "poolId",
          "type": "uint256"
        },
        {
          "internalType": "address",
          "name": "staker",
          "type": "address"
        }
      ],
      "name": "getNFTStakedLength",
      "outputs": [
        {
          "internalType": "uint256",
          "name": "",
          "type": "uint256"
        }
      ],
      "stateMutability": "view",
      "type": "function"
    },
    {
      "inputs": [
        {
          "internalType": "uint256",
          "name": "index",
          "type": "uint256"
        }
      ],
      "name": "getPoolInfo",
      "outputs": [
        {
          "components": [
            {
              "internalType": "uint256",
              "name": "poolId",
              "type": "uint256"
            },
            {
              "internalType": "address",
              "name": "collectionAddress",
              "type": "address"
            },
            {
              "internalType": "address",
              "name": "rewardTokenAddress",
              "type": "address"
            },
            {
              "internalType": "address",
              "name": "creatorAddress",
              "type": "address"
            },
            {
              "internalType": "uint256",
              "name": "minStakeSeconds",
              "type": "uint256"
            },
            {
              "internalType": "uint256",
              "name": "maxStakeSeconds",
              "type": "uint256"
            },
            {
              "internalType": "uint256",
              "name": "cooldownSeconds",
              "type": "uint256"
            },
            {
              "internalType": "uint256",
              "name": "timeUnitSeconds",
              "type": "uint256"
            },
            {
              "internalType": "uint256",
              "name": "rewardsPerTimeUnit",
              "type": "uint256"
            },
            {
              "internalType": "uint256",
              "name": "startTimestamp",
              "type": "uint256"
            },
            {
              "internalType": "uint256",
              "name": "endTimestamp",
              "type": "uint256"
            },
            {
              "internalType": "string",
              "name": "baseURI",
              "type": "string"
            }
          ],
          "internalType": "struct NFTStaking.StakingInfo",
          "name": "",
          "type": "tuple"
        }
      ],
      "stateMutability": "view",
      "type": "function"
    },
    {
      "inputs": [
        {
          "internalType": "address",
          "name": "creator",
          "type": "address"
        }
      ],
      "name": "getPoolsByCreator",
      "outputs": [
        {
          "components": [
            {
              "internalType": "uint256",
              "name": "poolId",
              "type": "uint256"
            },
            {
              "internalType": "address",
              "name": "collectionAddress",
              "type": "address"
            }
          ],
          "internalType": "struct NFTStaking.CreatorPool[]",
          "name": "",
          "type": "tuple[]"
        }
      ],
      "stateMutability": "view",
      "type": "function"
    },
    {
      "inputs": [
        {
          "internalType": "uint256",
          "name": "poolId",
          "type": "uint256"
        },
        {
          "internalType": "address",
          "name": "staker",
          "type": "address"
        },
        {
          "internalType": "uint256",
          "name": "start",
          "type": "uint256"
        },
        {
          "internalType": "uint256",
          "name": "end",
          "type": "uint256"
        }
      ],
      "name": "getStakeInfo",
      "outputs": [
        {
          "components": [
            {
              "internalType": "uint256",
              "name": "NFTId",
              "type": "uint256"
            },
            {
              "internalType": "uint256",
              "name": "rewards",
              "type": "uint256"
            },
            {
              "internalType": "string",
              "name": "uri",
              "type": "string"
            }
          ],
          "internalType": "struct NFTStaking.Rewards[]",
          "name": "",
          "type": "tuple[]"
        }
      ],
      "stateMutability": "view",
      "type": "function"
    },
    {
      "inputs": [
        {
          "internalType": "uint256",
          "name": "poolId",
          "type": "uint256"
        },
        {
          "internalType": "address",
          "name": "staker",
          "type": "address"
        }
      ],
      "name": "getStakedArray",
      "outputs": [
        {
          "internalType": "uint256[]",
          "name": "array",
          "type": "uint256[]"
        }
      ],
      "stateMutability": "view",
      "type": "function"
    },
    {
      "inputs": [
        {
          "internalType": "address",
          "name": "collectionAddress",
          "type": "address"
        },
        {
          "internalType": "address",
          "name": "rewardTokenAddress",
          "type": "address"
        },
        {
          "internalType": "uint256",
          "name": "minStakeSeconds",
          "type": "uint256"
        },
        {
          "internalType": "uint256",
          "name": "maxStakeSeconds",
          "type": "uint256"
        },
        {
          "internalType": "uint256",
          "name": "cooldownSeconds",
          "type": "uint256"
        },
        {
          "internalType": "uint256",
          "name": "timeUnitSeconds",
          "type": "uint256"
        },
        {
          "internalType": "uint256",
          "name": "rewardsPerTimeUnit",
          "type": "uint256"
        },
        {
          "internalType": "uint256",
          "name": "startTimestamp",
          "type": "uint256"
        },
        {
          "internalType": "uint256",
          "name": "endTimestamp",
          "type": "uint256"
        }
      ],
      "name": "initPool",
      "outputs": [],
      "stateMutability": "nonpayable",
      "type": "function"
    },
    {
      "inputs": [
        {
          "internalType": "uint256",
          "name": "poolId",
          "type": "uint256"
        },
        {
          "internalType": "address",
          "name": "collectionAddress",
          "type": "address"
        },
        {
          "internalType": "address",
          "name": "rewardTokenAddress",
          "type": "address"
        },
        {
          "internalType": "address",
          "name": "creatorAddress",
          "type": "address"
        },
        {
          "internalType": "uint256",
          "name": "minStakeSeconds",
          "type": "uint256"
        },
        {
          "internalType": "uint256",
          "name": "maxStakeSeconds",
          "type": "uint256"
        },
        {
          "internalType": "uint256",
          "name": "cooldownSeconds",
          "type": "uint256"
        },
        {
          "internalType": "uint256",
          "name": "timeUnitSeconds",
          "type": "uint256"
        },
        {
          "internalType": "uint256",
          "name": "rewardsPerTimeUnit",
          "type": "uint256"
        },
        {
          "internalType": "uint256",
          "name": "startTimestamp",
          "type": "uint256"
        },
        {
          "internalType": "uint256",
          "name": "endTimestamp",
          "type": "uint256"
        },
        {
          "internalType": "string",
          "name": "baseURI",
          "type": "string"
        }
      ],
      "name": "insertPool",
      "outputs": [],
      "stateMutability": "nonpayable",
      "type": "function"
    },
    {
      "inputs": [
        {
          "internalType": "address",
          "name": "",
          "type": "address"
        }
      ],
      "name": "isPoolExists",
      "outputs": [
        {
          "internalType": "bool",
          "name": "",
          "type": "bool"
        }
      ],
      "stateMutability": "view",
      "type": "function"
    },
    {
      "inputs": [
        {
          "internalType": "address",
          "name": "",
          "type": "address"
        },
        {
          "internalType": "address",
          "name": "",
          "type": "address"
        },
        {
          "internalType": "uint256",
          "name": "",
          "type": "uint256"
        },
        {
          "internalType": "bytes",
          "name": "",
          "type": "bytes"
        }
      ],
      "name": "onERC721Received",
      "outputs": [
        {
          "internalType": "bytes4",
          "name": "",
          "type": "bytes4"
        }
      ],
      "stateMutability": "nonpayable",
      "type": "function"
    },
    {
      "inputs": [],
      "name": "poolsCounter",
      "outputs": [
        {
          "internalType": "uint256",
          "name": "",
          "type": "uint256"
        }
      ],
      "stateMutability": "view",
      "type": "function"
    },
    {
      "inputs": [
        {
          "internalType": "uint256",
          "name": "poolId",
          "type": "uint256"
        }
      ],
      "name": "removePool",
      "outputs": [],
      "stateMutability": "nonpayable",
      "type": "function"
    },
    {
      "inputs": [
        {
          "internalType": "uint256",
          "name": "poolId",
          "type": "uint256"
        },
        {
          "internalType": "uint256[]",
          "name": "nftIds",
          "type": "uint256[]"
        }
      ],
      "name": "stake",
      "outputs": [],
      "stateMutability": "nonpayable",
      "type": "function"
    },
    {
      "inputs": [],
      "name": "timestamp",
      "outputs": [
        {
          "internalType": "uint256",
          "name": "",
          "type": "uint256"
        }
      ],
      "stateMutability": "view",
      "type": "function"
    },
    {
      "inputs": [
        {
          "internalType": "uint256",
          "name": "poolId",
          "type": "uint256"
        },
        {
          "internalType": "uint256[]",
          "name": "nftIds",
          "type": "uint256[]"
        }
      ],
      "name": "unstake",
      "outputs": [],
      "stateMutability": "nonpayable",
      "type": "function"
    }
  ],
  "bytecode": "0x60a060405234801561001057600080fd5b50336080526080516130ec6100376000396000818161036d01526103f901526130ec6000f3fe608060405234801561001057600080fd5b506004361061012c5760003560e01c806341c1bdc1116100ad578063a38dcbd011610071578063a38dcbd01461030f578063a7753f0914610322578063b80777ea14610342578063c84728ef14610348578063f851a4401461036857600080fd5b806341c1bdc11461024f5780635d0eb31a14610262578063639a29051461026b5780637edb992c1461029e57806396cd299f146102ef57600080fd5b806316f60557116100f457806316f60557146101c95780632133b8c2146101dc57806323a749e3146101fc5780632f380b351461021c578063395de2421461023c57600080fd5b80630186b04314610131578063034ed601146101575780630962ef791461016c57806313ed08461461017f578063150b7a0214610192575b600080fd5b61014461013f36600461277b565b6103a7565b6040519081526020015b60405180910390f35b61016a61016536600461287b565b6103ee565b005b61016a61017a36600461293d565b61063a565b61014461018d366004612956565b6109b7565b6101b06101a0366004612978565b630a85bd0160e11b949350505050565b6040516001600160e01b0319909116815260200161014e565b61016a6101d73660046129f4565b610c17565b6101ef6101ea36600461277b565b610fe4565b60405161014e9190612a73565b61014461020a366004612ab7565b60026020526000908152604090205481565b61022f61022a36600461293d565b611072565b60405161014e9190612be0565b61016a61024a3660046129f4565b6111cc565b61016a61025d366004612bf3565b6115de565b61014460005481565b61028e610279366004612ab7565b60016020526000908152604090205460ff1681565b604051901515815260200161014e565b6102b16102ac366004612956565b611b33565b60405161014e919081516001600160a01b03168152602080830151908201526040808301519082015260609182015115159181019190915260800190565b6103026102fd366004612c64565b611bcc565b60405161014e9190612c9f565b61016a61031d36600461293d565b611f0d565b610335610330366004612956565b6120a5565b60405161014e9190612d1e565b42610144565b61035b610356366004612ab7565b6123ae565b60405161014e9190612d80565b61038f7f000000000000000000000000000000000000000000000000000000000000000081565b6040516001600160a01b03909116815260200161014e565b6000600383815481106103bc576103bc612dd8565b600091825260208083206001600160a01b0386168452600d600e90930201919091019052604090205490505b92915050565b336001600160a01b037f000000000000000000000000000000000000000000000000000000000000000016146104615760405162461bcd60e51b815260206004820152601360248201527229b2b73232b91034b9903737ba1030b236b4b760691b60448201526064015b60405180910390fd5b60006001600160a01b031660038d8154811061047f5761047f612dd8565b600091825260209091206001600e9092020101546001600160a01b0316146104df5760405162461bcd60e51b8152602060048201526013602482015272706f6f6c4964206973206e6f7420656d70747960681b6044820152606401610458565b60006040518061018001604052808e81526020018d6001600160a01b031681526020018c6001600160a01b031681526020018b6001600160a01b031681526020018a81526020018981526020018881526020018781526020018681526020018581526020018481526020018381525090508060038e8154811061056457610564612dd8565b60009182526020918290208351600e90920201908155908201516001820180546001600160a01b039283166001600160a01b031991821617909155604084015160028401805491841691831691909117905560608401516003840180549190931691161790556080820151600482015560a0820151600582015560c0820151600682015560e0820151600782015561010082015160088201556101208201516009820155610140820151600a820155610160820151600b8201906106289082612e73565b50505050505050505050505050505050565b60006003828154811061064f5761064f612dd8565b60009182526020808320338452600d600e90930201919091018152604091829020805483518184028101840190945280845290918301828280156106b257602002820191906000526020600020905b81548152602001906001019080831161069e575b5050505050905060008151116107005760405162461bcd60e51b8152602060048201526013602482015272139bc81391951cc81dd95c99481cdd185ad959606a1b6044820152606401610458565b6000806003848154811061071657610716612dd8565b60009182526020918290206040805161018081018252600e9093029091018054835260018101546001600160a01b039081169484019490945260028101548416918301919091526003810154909216606082015260048201546080820152600582015460a0820152600682015460c0820152600782015460e082015260088201546101008201526009820154610120820152600a820154610140820152600b82018054919291610160840191906107cc90612dee565b80601f01602080910402602001604051908101604052809291908181526020018280546107f890612dee565b80156108455780601f1061081a57610100808354040283529160200191610845565b820191906000526020600020905b81548152906001019060200180831161082857829003601f168201915b505050505081525050905060005b835181101561094a5761087f8585838151811061087257610872612dd8565b60200260200101516109b7565b6108899084612f49565b9250426003868154811061089f5761089f612dd8565b90600052602060002090600e0201600c0160008684815181106108c4576108c4612dd8565b602002602001015181526020019081526020016000206002018190555042600386815481106108f5576108f5612dd8565b90600052602060002090600e0201600c01600086848151811061091a5761091a612dd8565b6020026020010151815260200190815260200160002060010181905550808061094290612f5c565b915050610853565b5060408082015190516340c10f1960e01b8152336004820152602481018490526001600160a01b03909116906340c10f1990604401600060405180830381600087803b15801561099957600080fd5b505af11580156109ad573d6000803e3d6000fd5b5050505050505050565b6000600383815481106109cc576109cc612dd8565b60009182526020808320858452600c600e90930201919091019052604090206003015460ff16610a3e5760405162461bcd60e51b815260206004820152601960248201527f4e4654206973206e6f74207374616b656420696e20706f6f6c000000000000006044820152606401610458565b600060038481548110610a5357610a53612dd8565b60009182526020918290206040805161018081018252600e9093029091018054835260018101546001600160a01b039081169484019490945260028101548416918301919091526003810154909216606082015260048201546080820152600582015460a0820152600682015460c0820152600782015460e082015260088201546101008201526009820154610120820152600a820154610140820152600b8201805491929161016084019190610b0990612dee565b80601f0160208091040260200160405190810160405280929190818152602001828054610b3590612dee565b8015610b825780601f10610b5757610100808354040283529160200191610b82565b820191906000526020600020905b815481529060010190602001808311610b6557829003601f168201915b5050505050815250509050600060038581548110610ba257610ba2612dd8565b90600052602060002090600e0201600c0160008581526020019081526020016000206001015442610bd39190612f75565b90508160a00151811115610be8575060a08101515b6000826080015182610bfa9190612f88565b905082610100015181610c0d9190612faa565b9695505050505050565b600060038481548110610c2c57610c2c612dd8565b600091825260209091206001600e909202010154600380546001600160a01b039092169250429186908110610c6357610c63612dd8565b90600052602060002090600e02016000016009015410610cc55760405162461bcd60e51b815260206004820152601860248201527f506f6f6c20686173206e6f7420737461727465642079657400000000000000006044820152606401610458565b4260038581548110610cd957610cd9612dd8565b90600052602060002090600e0201600001600a015411610d305760405162461bcd60e51b8152602060048201526012602482015271141bdbdb081a5cc81c185cdcd959081bdd5d60721b6044820152606401610458565b60005b82811015610fdd5760038581548110610d4e57610d4e612dd8565b90600052602060002090600e02016000016006015442610d6e9190612f75565b60038681548110610d8157610d81612dd8565b90600052602060002090600e0201600c016000868685818110610da657610da6612dd8565b9050602002013581526020019081526020016000206002015410610e0c5760405162461bcd60e51b815260206004820152601b60248201527f436f6f6c646f776e20686173206e6f7420706173736564206f757400000000006044820152606401610458565b816001600160a01b03166342842e0e3330878786818110610e2f57610e2f612dd8565b6040516001600160e01b031960e088901b1681526001600160a01b03958616600482015294909316602485015250602090910201356044820152606401600060405180830381600087803b158015610e8657600080fd5b505af1158015610e9a573d6000803e3d6000fd5b505050506040518060800160405280336001600160a01b031681526020014281526020014281526020016001151581525060038681548110610ede57610ede612dd8565b90600052602060002090600e0201600c016000868685818110610f0357610f03612dd8565b60209081029290920135835250818101929092526040908101600020835181546001600160a01b0319166001600160a01b0390911617815591830151600183015582015160028201556060909101516003918201805460ff1916911515919091179055805486908110610f7857610f78612dd8565b60009182526020808320338452600d600e9093020191909101905260409020848483818110610fa957610fa9612dd8565b8354600181018555600094855260209485902091909402929092013591909201555080610fd581612f5c565b915050610d33565b5050505050565b606060038381548110610ff957610ff9612dd8565b600091825260208083206001600160a01b0386168452600d600e909302019190910181526040918290208054835181840281018401909452808452909183018282801561106557602002820191906000526020600020905b815481526020019060010190808311611051575b5050505050905092915050565b61107a61268d565b6003828154811061108d5761108d612dd8565b60009182526020918290206040805161018081018252600e9093029091018054835260018101546001600160a01b039081169484019490945260028101548416918301919091526003810154909216606082015260048201546080820152600582015460a0820152600682015460c0820152600782015460e082015260088201546101008201526009820154610120820152600a820154610140820152600b820180549192916101608401919061114390612dee565b80601f016020809104026020016040519081016040528092919081815260200182805461116f90612dee565b80156111bc5780601f10611191576101008083540402835291602001916111bc565b820191906000526020600020905b81548152906001019060200180831161119f57829003601f168201915b5050505050815250509050919050565b6000600384815481106111e1576111e1612dd8565b60009182526020808320338452600d600e909302019190910190526040812091505b82811015610fdd57336001600160a01b03166003868154811061122857611228612dd8565b90600052602060002090600e0201600c01600086868581811061124d5761124d612dd8565b60209081029290920135835250810191909152604001600020546001600160a01b0316146112bd5760405162461bcd60e51b815260206004820152601d60248201527f53656e646572206973206e6f74206f776e6572206f66206e66742069640000006044820152606401610458565b600385815481106112d0576112d0612dd8565b90600052602060002090600e0201600c0160008585848181106112f5576112f5612dd8565b602090810292909201358352508101919091526040016000206003015460ff166113555760405162461bcd60e51b8152602060048201526011602482015270139195081a5cc81b9bdd081cdd185ad959607a1b6044820152606401610458565b6003858154811061136857611368612dd8565b600091825260209091206001600e9092020101546001600160a01b03166342842e0e303387878681811061139e5761139e612dd8565b6040516001600160e01b031960e088901b1681526001600160a01b03958616600482015294909316602485015250602090910201356044820152606401600060405180830381600087803b1580156113f557600080fd5b505af1158015611409573d6000803e3d6000fd5b50505050604051806080016040528060006001600160a01b0316815260200160008152602001428152602001600015158152506003868154811061144f5761144f612dd8565b90600052602060002090600e0201600c01600086868581811061147457611474612dd8565b602090810292909201358352508181019290925260409081016000908120845181546001600160a01b0319166001600160a01b039091161781559284015160018401559083015160028301556060909201516003909101805460ff19169115159190911790555b82548110156115cb578484838181106114f6576114f6612dd8565b9050602002013583828154811061150f5761150f612dd8565b9060005260206000200154036115b957805b835461152f90600190612f75565b81101561158d5783611542826001612f49565b8154811061155257611552612dd8565b906000526020600020015484828154811061156f5761156f612dd8565b6000918252602090912001558061158581612f5c565b915050611521565b508280548061159e5761159e612fc1565b600190038181906000526020600020016000905590556115cb565b806115c381612f5c565b9150506114db565b50806115d681612f5c565b915050611203565b6001600160a01b03891660009081526001602052604090205460ff16156116475760405162461bcd60e51b815260206004820152601960248201527f436f6c6c656374696f6e20616c726561647920657869737473000000000000006044820152606401610458565b6040516301ffc9a760e01b81526380ac58cd60e01b60048201526001600160a01b038a16906301ffc9a790602401602060405180830381865afa158015611692573d6000803e3d6000fd5b505050506040513d601f19601f820116820180604052508101906116b69190612fd7565b61171a5760405162461bcd60e51b815260206004820152602f60248201527f4e465420636f6e747261637420646f6573206e6f7420737570706f727473204560448201526e524337323120696e7465726661636560881b6064820152608401610458565b6040516301ffc9a760e01b81526336372b0760e01b60048201526001600160a01b038916906301ffc9a790602401602060405180830381865afa158015611765573d6000803e3d6000fd5b505050506040513d601f19601f820116820180604052508101906117899190612fd7565b6117ec5760405162461bcd60e51b815260206004820152602e60248201527f52657761726420746f6b656e20646f6573206e6f7420737570706f727473204560448201526d5243323020696e7465726661636560901b6064820152608401610458565b600380546001018155600090815260405163c87b56dd60e01b8152600481018290526001600160a01b038b169063c87b56dd90602401600060405180830381865afa15801561183f573d6000803e3d6000fd5b505050506040513d6000823e601f3d908101601f191682016040526118679190810190612ff9565b90506000600182516118799190612f75565b67ffffffffffffffff811115611891576118916127a7565b6040519080825280601f01601f1916602001820160405280156118bb576020820181803683370190505b50905060005b8151811015611922578281815181106118dc576118dc612dd8565b602001015160f81c60f81b8282815181106118f9576118f9612dd8565b60200101906001600160f81b031916908160001a9053508061191a81612f5c565b9150506118c1565b50600060405180610180016040528060038054905081526020018d6001600160a01b031681526020018c6001600160a01b03168152602001336001600160a01b031681526020018b81526020018a81526020018981526020018881526020018781526020018681526020018581526020018381525090508060038080549050815481106119b1576119b1612dd8565b60009182526020918290208351600e90920201908155908201516001820180546001600160a01b039283166001600160a01b031991821617909155604084015160028401805491841691831691909117905560608401516003840180549190931691161790556080820151600482015560a0820151600582015560c0820151600682015560e0820151600782015561010082015160088201556101208201516009820155610140820151600a820155610160820151600b820190611a759082612e73565b505060008054915080611a8783612f5c565b90915550506001600160a01b038c166000908152600160208181526040808420805460ff191684179055338452600290915290912054611ac691612f49565b33600081815260026020526040908190209290925560035491517f3d82013e0d368d05bfb8b953d35bffd6eec15520773228de41146f306a241aec92611b1d929082526001600160a01b0316602082015260400190565b60405180910390a1505050505050505050505050565b60408051608081018252600080825260208201819052918101829052606081019190915260038381548110611b6a57611b6a612dd8565b60009182526020808320948352600e91909102909301600c018352604090819020815160808101835281546001600160a01b031681526001820154948101949094526002810154918401919091526003015460ff161515606083015250919050565b6060600060038681548110611be357611be3612dd8565b60009182526020918290206040805161018081018252600e9093029091018054835260018101546001600160a01b039081169484019490945260028101548416918301919091526003810154909216606082015260048201546080820152600582015460a0820152600682015460c0820152600782015460e082015260088201546101008201526009820154610120820152600a820154610140820152600b8201805491929161016084019190611c9990612dee565b80601f0160208091040260200160405190810160405280929190818152602001828054611cc590612dee565b8015611d125780601f10611ce757610100808354040283529160200191611d12565b820191906000526020600020905b815481529060010190602001808311611cf557829003601f168201915b505050505081525050905060008484611d2b9190612f75565b67ffffffffffffffff811115611d4357611d436127a7565b604051908082528060200260200182016040528015611d9857816020015b611d8560405180606001604052806000815260200160008152602001606081525090565b815260200190600190039081611d615790505b50905060005b84861015611f025760038881548110611db957611db9612dd8565b90600052602060002090600e0201600d016000886001600160a01b03166001600160a01b031681526020019081526020016000208681548110611dfe57611dfe612dd8565b9060005260206000200154828281518110611e1b57611e1b612dd8565b60200260200101516000018181525050611e5288838381518110611e4157611e41612dd8565b6020026020010151600001516109b7565b828281518110611e6457611e64612dd8565b60200260200101516020018181525050826101600151611ea0838381518110611e8f57611e8f612dd8565b602002602001015160000151612522565b604051602001611eb1929190613070565b604051602081830303815290604052828281518110611ed257611ed2612dd8565b6020026020010151604001819052508080611eec90612f5c565b9150508580611efa90612f5c565b965050611d9e565b509695505050505050565b60038181548110611f2057611f20612dd8565b60009182526020909120600e90910201600301546001600160a01b03163314611f8b5760405162461bcd60e51b815260206004820152601a60248201527f53656e646572206973206e6f7420706f6f6c2063726561746f720000000000006044820152606401610458565b600060038281548110611fa057611fa0612dd8565b600091825260208083206001600e909302018201546001600160a01b03168084528282526040808520805460ff191690553385526002909252922054919250611fe891612f75565b33600090815260026020526040812091909155805490806120088361309f565b91905055506003828154811061202057612020612dd8565b600091825260208220600e909102018181556001810180546001600160a01b0319908116909155600282018054821690556003820180549091169055600481018290556005810182905560068101829055600781018290556008810182905560098101829055600a810182905590818161209d600b830182612709565b505050505050565b6003546060908311156121095760405162461bcd60e51b815260206004820152602660248201527f4f6666736574206d757374206265206c657373207468656e205f706f6f6c73206044820152650d8cadccee8d60d31b6064820152608401610458565b6003546121168385612f49565b111561217b5760405162461bcd60e51b815260206004820152602e60248201527f4f6666736574202b206c696d696c206d757374206265206c657373207468656e60448201526d040bee0deded8e640d8cadccee8d60931b6064820152608401610458565b60008267ffffffffffffffff811115612196576121966127a7565b6040519080825280602002602001820160405280156121cf57816020015b6121bc61268d565b8152602001906001900390816121b45790505b50905060005b838510156123a65760006001600160a01b0316600386815481106121fb576121fb612dd8565b600091825260209091206001600e9092020101546001600160a01b031603612394576003858154811061223057612230612dd8565b60009182526020918290206040805161018081018252600e9093029091018054835260018101546001600160a01b039081169484019490945260028101548416918301919091526003810154909216606082015260048201546080820152600582015460a0820152600682015460c0820152600782015460e082015260088201546101008201526009820154610120820152600a820154610140820152600b82018054919291610160840191906122e690612dee565b80601f016020809104026020016040519081016040528092919081815260200182805461231290612dee565b801561235f5780601f106123345761010080835404028352916020019161235f565b820191906000526020600020905b81548152906001019060200180831161234257829003601f168201915b50505050508152505082868151811061237a5761237a612dd8565b6020026020010181905250848061239090612f5c565b9550505b8061239e81612f5c565b9150506121d5565b509392505050565b6001600160a01b0381166000908152600260205260408120546060919067ffffffffffffffff8111156123e3576123e36127a7565b60405190808252806020026020018201604052801561242857816020015b60408051808201909152600080825260208201528152602001906001900390816124015790505b5090506000805b60035481101561251957846001600160a01b03166003828154811061245657612456612dd8565b600091825260209091206003600e9092020101546001600160a01b031603612507578083838151811061248b5761248b612dd8565b60209081029190910101515260038054829081106124ab576124ab612dd8565b600091825260209091206001600e90920201015483516001600160a01b03909116908490849081106124df576124df612dd8565b6020908102919091018101516001600160a01b039092169101528161250381612f5c565b9250505b8061251181612f5c565b91505061242f565b50909392505050565b6060600061252f836125b5565b600101905060008167ffffffffffffffff81111561254f5761254f6127a7565b6040519080825280601f01601f191660200182016040528015612579576020820181803683370190505b5090508181016020015b600019016f181899199a1a9b1b9c1cb0b131b232b360811b600a86061a8153600a850494508461258357509392505050565b60008072184f03e93ff9f4daa797ed6e38ed64bf6a1f0160401b83106125f45772184f03e93ff9f4daa797ed6e38ed64bf6a1f0160401b830492506040015b6d04ee2d6d415b85acef81000000008310612620576d04ee2d6d415b85acef8100000000830492506020015b662386f26fc10000831061263e57662386f26fc10000830492506010015b6305f5e1008310612656576305f5e100830492506008015b612710831061266a57612710830492506004015b6064831061267c576064830492506002015b600a83106103e85760010192915050565b6040518061018001604052806000815260200160006001600160a01b0316815260200160006001600160a01b0316815260200160006001600160a01b0316815260200160008152602001600081526020016000815260200160008152602001600081526020016000815260200160008152602001606081525090565b50805461271590612dee565b6000825580601f10612725575050565b601f0160209004906000526020600020908101906127439190612746565b50565b5b8082111561275b5760008155600101612747565b5090565b80356001600160a01b038116811461277657600080fd5b919050565b6000806040838503121561278e57600080fd5b8235915061279e6020840161275f565b90509250929050565b634e487b7160e01b600052604160045260246000fd5b604051601f8201601f1916810167ffffffffffffffff811182821017156127e6576127e66127a7565b604052919050565b600067ffffffffffffffff821115612808576128086127a7565b50601f01601f191660200190565b6000612829612824846127ee565b6127bd565b905082815283838301111561283d57600080fd5b828260208301376000602084830101529392505050565b600082601f83011261286557600080fd5b61287483833560208501612816565b9392505050565b6000806000806000806000806000806000806101808d8f03121561289e57600080fd5b8c359b506128ae60208e0161275f565b9a506128bc60408e0161275f565b99506128ca60608e0161275f565b985060808d0135975060a08d0135965060c08d0135955060e08d013594506101008d013593506101208d013592506101408d0135915067ffffffffffffffff6101608e0135111561291a57600080fd5b61292b8e6101608f01358f01612854565b90509295989b509295989b509295989b565b60006020828403121561294f57600080fd5b5035919050565b6000806040838503121561296957600080fd5b50508035926020909101359150565b6000806000806080858703121561298e57600080fd5b6129978561275f565b93506129a56020860161275f565b925060408501359150606085013567ffffffffffffffff8111156129c857600080fd5b8501601f810187136129d957600080fd5b6129e887823560208401612816565b91505092959194509250565b600080600060408486031215612a0957600080fd5b83359250602084013567ffffffffffffffff80821115612a2857600080fd5b818601915086601f830112612a3c57600080fd5b813581811115612a4b57600080fd5b8760208260051b8501011115612a6057600080fd5b6020830194508093505050509250925092565b6020808252825182820181905260009190848201906040850190845b81811015612aab57835183529284019291840191600101612a8f565b50909695505050505050565b600060208284031215612ac957600080fd5b6128748261275f565b60005b83811015612aed578181015183820152602001612ad5565b50506000910152565b60008151808452612b0e816020860160208601612ad2565b601f01601f19169290920160200192915050565b6000610180825184526020830151612b4560208601826001600160a01b03169052565b506040830151612b6060408601826001600160a01b03169052565b506060830151612b7b60608601826001600160a01b03169052565b506080830151608085015260a083015160a085015260c083015160c085015260e083015160e0850152610100808401518186015250610120808401518186015250610140808401518186015250610160808401518282870152610c0d83870182612af6565b6020815260006128746020830184612b22565b60008060008060008060008060006101208a8c031215612c1257600080fd5b612c1b8a61275f565b9850612c2960208b0161275f565b989b989a505050506040870135966060810135966080820135965060a0820135955060c0820135945060e08201359350610100909101359150565b60008060008060808587031215612c7a57600080fd5b84359350612c8a6020860161275f565b93969395505050506040820135916060013590565b60006020808301818452808551808352604092508286019150828160051b87010184880160005b83811015612d1057888303603f1901855281518051845287810151888501528601516060878501819052612cfc81860183612af6565b968901969450505090860190600101612cc6565b509098975050505050505050565b6000602080830181845280855180835260408601915060408160051b870101925083870160005b82811015612d7357603f19888603018452612d61858351612b22565b94509285019290850190600101612d45565b5092979650505050505050565b602080825282518282018190526000919060409081850190868401855b82811015612dcb578151805185528601516001600160a01b0316868501529284019290850190600101612d9d565b5091979650505050505050565b634e487b7160e01b600052603260045260246000fd5b600181811c90821680612e0257607f821691505b602082108103612e2257634e487b7160e01b600052602260045260246000fd5b50919050565b601f821115612e6e57600081815260208120601f850160051c81016020861015612e4f5750805b601f850160051c820191505b8181101561209d57828155600101612e5b565b505050565b815167ffffffffffffffff811115612e8d57612e8d6127a7565b612ea181612e9b8454612dee565b84612e28565b602080601f831160018114612ed65760008415612ebe5750858301515b600019600386901b1c1916600185901b17855561209d565b600085815260208120601f198616915b82811015612f0557888601518255948401946001909101908401612ee6565b5085821015612f235787850151600019600388901b60f8161c191681555b5050505050600190811b01905550565b634e487b7160e01b600052601160045260246000fd5b808201808211156103e8576103e8612f33565b600060018201612f6e57612f6e612f33565b5060010190565b818103818111156103e8576103e8612f33565b600082612fa557634e487b7160e01b600052601260045260246000fd5b500490565b80820281158282048414176103e8576103e8612f33565b634e487b7160e01b600052603160045260246000fd5b600060208284031215612fe957600080fd5b8151801515811461287457600080fd5b60006020828403121561300b57600080fd5b815167ffffffffffffffff81111561302257600080fd5b8201601f8101841361303357600080fd5b8051613041612824826127ee565b81815285602083850101111561305657600080fd5b613067826020830160208601612ad2565b95945050505050565b60008351613082818460208801612ad2565b835190830190613096818360208801612ad2565b01949350505050565b6000816130ae576130ae612f33565b50600019019056fea26469706673582212208dea9e192a2f0d1aca4f8af27cc33577ee20d336693a223341ad092074d24b6164736f6c63430008110033",
  "linkReferences": {},
  "deployedLinkReferences": {}
}